:1000000061C0000086C0000084C0000082C0000003
:1000100080C000007EC000000C94B10B7AC00000CC
:1000200078C0000076C0000074C0000072C00000FC
:1000300070C000006EC000006CC000006AC000000C
:100040000C94561066C000000C94640E62C0000050
:1000500060C000005EC000005CC000005AC000002C
:1000600058C0000056C00000000000070002010058
:100070000003040600000000000000000102040864
:100080001020408001020408102001020408102002
:10009000040404040404040402020202020203032E
:1000A00003030303000000002300260029000000D2
:1000B0000000250028002B0000000000240027007D
:1000C0002A00EE0E11241FBECFEFD8E0DEBFCDBF59
:1000D00011E0A0E0B1E0EEE8F5E202C005900D927B
:1000E000AE37B107D9F722E0AEE7B1E001C01D920B
:1000F000AB3AB207E1F710E0C2E6D0E004C02197C6
:10010000FE010E948A11C136D107C9F752D10C9461
:10011000C51276CFCF92DF92EF92FF920F931F938B
:10012000CF93DF93EC010E94FA09092E000CAA0B71
:10013000BB0B6C017D012FEFC21AD20AE20AF20A50
:10014000B601CE010E94030A78D3EC0169E071E0A8
:1001500087E092E00E944E0FCE016FE170E00E94B6
:1001600041114AE050E087E092E00E944E108AE0A0
:100170000E94191161E0892B09F060E08AE00E9479
:10018000EA1085E0C816D104E104F10478F040914A
:1001900006015091070110E000E030E020E064E04B
:1001A00080918201909183010E94C809DF91CF91D3
:1001B0001F910F91FF90EF90DF90CF9008950F93D4
:1001C0001F9340E855E260E070E087E092E00E9413
:1001D000990E61E08BE00E94C91061E08AE00E9404
:1001E000C91061E089E00E94C91061E088E00E94C6
:1001F000C91060E085E00E94C91060E084E00E94C0
:10020000C91060E087E00E94C9100AE810E030E001
:1002100020E041E06FE170E08FE291E00E949409FC
:100220009093830180938201892BA1F006D310E083
:1002300000E030E020E0AC0161E08091820190912B
:1002400083010E94C80980938101813019F41F91B4
:100250000F91A3C21F910F9108950F931F9385E0F3
:100260000E941911892B09F48EC08091800181119F
:100270002AC061E089E00E94EA1080910601909115
:1002800007014F9690930701809306016AE371E09E
:1002900087E092E00E944E0F809106019091070145
:1002A0006FE170E00E9455114AE050E087E092E073
:1002B0000E9437106FE471E087E092E00E944E0FD9
:1002C00081E08093800184E00E941911892B09F458
:1002D00061C080917F01811130C0809106019091B1
:1002E0000701809754F161E088E00E94EA10809154
:1002F0000601909107014F979093070180930601A3
:100300006AE371E087E092E00E944E0F809106015F
:10031000909107016FE170E00E9455114AE050E0B2
:1003200087E092E00E9437106FE471E087E092E08E
:100330000E944E0F81E080937F0187E00E94191197
:10034000892B79F180917E0181111AC076D210E05B
:1003500000E030E020E0AC0162E080918201909109
:1003600083010E94C80961E08BE00E94EA1063E506
:1003700071E087E092E00E942F1081E080937E017F
:100380001F910F9108951092800160E089E00E9412
:10039000EA1099CF10927F0160E088E00E94EA1095
:1003A000CCCF10927E0160E08BE01F910F910C94F6
:1003B000EA1005DF52DFFECFE091B101F091B2010A
:1003C0008081811107C08FEF9FEF90938801809308
:1003D00087010895E091B101F091B2010580F681A5
:1003E000E02D80819181F1CFBF92CF92DF92EF9289
:1003F000FF920F931F93CF93DF93EC01B62EC09023
:100400009001D09091010091B1011091B201E09062
:10041000AF01F090B0018091E9019091EA0102965C
:100420000E94900ACF3FDC0709F042C0BB2009F4CC
:100430003FC0E0919401F0919501A091E901B09144
:10044000EA011596FC93EE931497A091E901B091FF
:10045000EA018481958117969C938E9316978091DB
:10046000E9019091EA01A481B581029613969C93CB
:100470008E9312978091E9019091EA0102969583FB
:100480008483E091E901F091EA0183E991E09387A7
:100490008287809193018F5F80939301DF91CF9149
:1004A0001F910F91FF90EF90DF90CF90BF90089534
:1004B000CC0DDD1DE091E901F091EA01D383C28307
:1004C0006091E9017091EA016E5F7F4FCC15DD0507
:1004D00058F4C701DF91CF911F910F91FF90EF90DA
:1004E000DF90CF90BF90E6C7C801E4D78091870125
:1004F00090918801C817D90788F6D0938801C093D6
:100500008701CCCFCF93DF9380919C01811103C0F1
:10051000DF91CF9108950FB6F8940F92E091A20168
:10052000F091A301C681D781CE010296F9D78091BF
:10053000920181508093920180919C01815080931F
:100540009C010F900FBE8F89988D94D7CE0192D7C2
:10055000DBCFD8DF8091C501823010F00E94C40A41
:100560005BD7F7CF5F926F927F928F929F92AF92FD
:10057000BF92CF92DF92EF92FF920F931F93CF9390
:10058000DF933C016B015A014901502ECA0163D728
:100590008C01892B09F4C8C080E390E05CD7EC01A2
:1005A000892B09F4BFC080E3DE011D928A95E9F72B
:1005B000188F0F8BA50165EA70E0C8010E94BE127A
:1005C000B1E0AB1AB1088F89988DA80EB91EC1147D
:1005D000D10409F0BAC0052D043008F003E00E8BF9
:1005E00009A76E01B2E0CB0ED11CC6015FD7CE01C8
:1005F0000C965CD7D987C88784E090E0801B91096E
:100600009D878C87DB8BCA8BA401B301C501ABD757
:1006100099838883E114F10419F0F701D183C08331
:100620000FB6F8940F92809192018F5F80939201A0
:100630008091E9019091EA01892B09F09CC0D09347
:10064000EA01C093E90180919201813039F585EC8E
:1006500091E01ED78EEC91E01BD787ED91E018D783
:1006600080EE91E015D78CEB91E012D783EB91E00F
:100670000FD786EA91E00CD78DE991E009D783E99D
:1006800091E006D78CEB91E09093B2018093B10199
:1006900083EB91E09093B0018093AF018091890149
:1006A0008F5F80938901AE8980918F018A1710F442
:1006B000A0938F0189E08A9FD0011124AB53BE4FD4
:1006C00011960D90BC91A02DBD83AC8314962D91F5
:1006D0003C9115973F832E831496ED91FC911597CD
:1006E000D382C2821596DC92CE921497EE89E89F4F
:1006F000F0011124EB53FE4FFB87EA8780818F5F67
:1007000080830F900FBE80918E01882349F0E09185
:10071000E901F091EA0196898E89981708F434D797
:1007200081E003C0C801A6D68FEFDF91CF911F9162
:100730000F91FF90EF90DF90CF90BF90AF909F9080
:100740008F907F906F905F900895F601AE01475EA5
:100750005F4FC60140962191DA012D93AD019F01B3
:1007600021503109D9012C91222319F08E179F07AE
:1007700091F718A630CF80918E0181118FCFE09133
:10078000E901F091EA019E898689981708F486CFDD
:10079000D093EA01C093E90181CFEF92FF920F93CA
:1007A000CF93DF93CDB7DEB760970FB6F894DEBF77
:1007B0000FBECDBFAFE5B1E0FE0131962FE631E0CF
:1007C000BF018D918193882319F02A173B07C9F740
:1007D00085E8E82E81E0F82E00E030E020E040ECF3
:1007E00050E089EA92E0BEDE882399F0813089F4F6
:1007F0007DD5813071F4F8942FEF3FEF309388016D
:100800002093870180938E011092910110929001A4
:100810007AD78091080160960FB6F894DEBF0FBEBC
:10082000CDBFDF91CF910F91FF90EF900895809110
:1008300084018F5F8093840108950FB6F8940F921E
:1008400080919001909191010F900FBE0895CF92E9
:10085000DF92EF92FF920F931F93CF93DF938091DC
:1008600084018111E4C0C0919001D09191016E0189
:100870008FEFC81AD80AD0929101C0929001C1148A
:10088000D104B1F48091B1019091B2012091AF01F6
:100890003091B0013093B2012093B1019093B00137
:1008A0008093AF0180918A018F5F80938A0184DDFC
:1008B0008091870190918801C816D906E8F480E0FC
:1008C000E091E901F091EA01E689D9E0ED9FF001BC
:1008D0001124EB53FE4F9081923008F081E090910B
:1008E0008B01911181E0DF91CF911F910F91FF90CA
:1008F000EF90DF90CF90089580E069E0E091B10142
:10090000F091B2019081911107C02FEF3FEF30932A
:10091000880120938701D4CFE091B101F091B20119
:100920000580F681E02D0680F781E02D228133815C
:10093000C216D30660F3C285D385248135814681F2
:100940005781D90115965C934E9314974681578130
:10095000DA0113963C932E9312979F012E5F3F4F1F
:1009600009811A810217130711F45A8349831386E8
:100970001286988191509883A489B5891097F9F0CF
:100980004685578500891189EA011D830C830089FA
:100990001189E8015B834A831196ED90FC901297D0
:1009A000AF01445F5F4FE416F50621F412961C93E5
:1009B0000E931197158A148A9C9191509C93A68945
:1009C00090918F019A1710F4A0938F016A9FD00124
:1009D0001124AB53BE4F11960D90BC91A02DB58341
:1009E000A48314964D915C91159757834683149672
:1009F0004D915C911597EA013B832A8315963C93B0
:100A00002E9314972689269FD0011124AB53BE4FF5
:100A1000B387A2879C919F5F9C93E091E901F0913D
:100A2000EA019689921708F069CF81E067CF80913B
:100A30008C0190918D01019690938D0180938C0192
:100A400080E051CFEF92FF920F931F93CF93DF93EC
:100A50000FB6F8940F9280918401815080938401A5
:100A600080918401882351F080E00F900FBEDF91C8
:100A7000CF911F910F91FF90EF9008958091920177
:100A8000882391F3E090AB01F090AC01F0E0E0E05E
:100A900039E041E08091A60181111FC0EF2B09F0E0
:100AA0008BDCC0918C01D0918D01209759F011E021
:100AB000CEDE811110938B012197D1F710928D0119
:100AC00010928C0180918B01882371F28091E90151
:100AD0009091EA0159D581E0C8CFD7011696ED91E2
:100AE000FC91A489B5896685778580899189EB0118
:100AF0009D838C8380899189EC017B836A83BF010C
:100B0000645F7F4F11960D911C911297061717077E
:100B100021F412969C938E931197158A148A8C91C6
:100B200081508C93A285B38584819581668177817C
:100B3000EC017D836C8366817781EB019B838A83E3
:100B4000CF01029611960D911C9112970817190763
:100B500021F412967C936E931197138612862C9132
:100B600021502C93A68920918F012A1710F4A0936D
:100B70008F013A9FD0011124AB53BE4F11960D90B7
:100B8000BC91A02DB583A48314966D917C9115978B
:100B90007783668314966D917C911597EB019B8307
:100BA0008A8315969C938E9314979689939FD00170
:100BB0001124AB53BE4FB387A2878C918F5F8C9368
:100BC000A091E901B091EA0156968C91891708F03D
:100BD00061CF40938B015ECF80918401882321F007
:100BE00081E080938B01089510928B01A091E9011F
:100BF000B091EA01E091E901F091EA012D913C9177
:100C00008789908D8217930758F06091E901709160
:100C1000EA018091E9019091EA01675E7F4F0FD46C
:100C200020918F0189E0422F50E0849FF001859F41
:100C3000F00D1124EB53FE4F9081992359F1A181BE
:100C4000B28112966D917C9172836183289FC0015D
:100C5000112488539E4F6817790721F48581968166
:100C60009283818389E0849FF001859FF00D112498
:100C7000EB53FE4F0180F281E02D868197819093A6
:100C8000EA018093E90120938F018091E90190911D
:100C9000EA0108952150C7CFCF93DF93EB01609114
:100CA000E9017091EA01645F7F4F04D461E0CE01F5
:100CB000DF91CF9199CB0F931F93CF93DF93FC01DB
:100CC0008B01A181B2818091E9019091EA01EC014F
:100CD000BF87AE878091E9019091EA0114962D912A
:100CE0003C911597EC01398B288B2091E9013091CB
:100CF000EA0114968D919C911597245F3F4FEC016A
:100D00003B832A832091E9013091EA01245F3F4F20
:100D100015963C932E931497A091E901B091EA01A6
:100D20005596FC93EE93549790819F5F9083442354
:100D300011F00FEF1FEF642FC801DF91CF911F91CA
:100D40000F9152CBCF93DF93DC011596ED91FC917F
:100D50000680F781E02DA489B5898685978520894D
:100D60003189EC013D832C83C089D1899B838A839F
:100D7000CF010C9611962D913C91129728173907A7
:100D800021F41296DC93CE931197158A148A2C9134
:100D900021502C9320918401211157C0A285B38545
:100DA0008481958126813781EC013D832C83C68126
:100DB000D7819B838A83CF01029611962D913C9116
:100DC00012972817390721F41296DC93CE931197C6
:100DD000138612862C9121502C93C68920918F0165
:100DE0002C1710F4C0938F0129E02C9FE0011124EF
:100DF000CB53DE4F0980DA81C02DD583C4834C816B
:100E00005D8157834683AC81BD8113969C938E93FD
:100E100012979D838C83A689A29FD0011124AB5386
:100E2000BE4FB387A2878C918F5F8C93A091E9010D
:100E3000B091EA01968956968C91891730F581E038
:100E400080938B01DF91CF910895A091A701B0917C
:100E5000A801B787A68714962D913C911597318BE1
:100E6000208B1496CD91DC9115979B838A831596E0
:100E70009C938E93149786EA91E0958B848B809156
:100E8000A6018F5F8093A601D1CF80E0DBCF2091B8
:100E90008A01FC01208320919001309191013283DD
:100EA00021830895CF93DF930FB6F8940F9240916A
:100EB000900150919101DB012D913C912F3F320720
:100EC000F9F0EC01E981FA81A0918A01B881BA17A1
:100ED00061F04E175F0748F0FB011182108281E03C
:100EE0000F900FBEDF91CF9108954E1B5F0B4217FD
:100EF000530790F7241B350BDB012D933C93C7DF81
:100F000080E0EECF81E080938B01089580918E0187
:100F1000882331F080918401882321F080E00895B6
:100F200081E0089582E008950F931F93CF93DF939C
:100F3000EC01892B31F480E0DF91CF911F910F916B
:100F400008958AA581508AA72E8999A5291799F312
:100F50008111F1CF8E010E5F1F4FC801E1D289A52B
:100F60008E8B482F50E024E030E0241B350B3D876A
:100F70002C8790918F01981710F480938F0189E04E
:100F8000849FD001859FB00D1124AB53BE4F1196A5
:100F90000D90BC91A02DBD83AC8314962D913C91F6
:100FA00015973F832E831496ED91FC91159713832B
:100FB000028315961C930E931497EE89E89FF00117
:100FC0001124EB53FE4FFB87EA8780818F5F80837C
:100FD00081E0B2CF0FB6F8940F928091EF0190911B
:100FE000F001892BD1F48EEF91E052D285EF91E0A0
:100FF0004FD28EEF91E09093F4018093F30185EF4F
:1010000091E09093F2018093F10140E065E08AE085
:101010009DD49093F0018093EF010F900FBE08953F
:10102000FC0173836283918780874617570788F096
:10103000421B530B8485958548175907C0F4BF019F
:101040006E5F7F4F8091F1019091F20133D280E089
:1010500008954217530718F46217730740F4BF014D
:101060006E5F7F4F8091F3019091F401EFCF81E0AB
:101070000895EF92FF920F931F93CF93DF93EC01AC
:101080008B017A016C857D85600F711F9801A70126
:10109000CE01C6DF811107C0DF91CF911F910F9163
:1010A000FF90EF9008958C859D85080F191FE889A2
:1010B000F989CE010995E6CFEF92FF920F931F9326
:1010C000CF93DF938C017B01E091F301F091F40168
:1010D0000580F681E02DC681D781CE01029620D20F
:1010E0008A8982FF0EC0A701B801CE01C2DFE8895C
:1010F000F989CE01DF91CF911F910F91FF90EF9071
:1011000009948E7F8A8BF3CFE091F301F091F40183
:10111000808181110DC08091F1019091F201909335
:10112000F4018093F301F093F201E093F10108954B
:101130000580F681E02D6FEF7FEF80819181BCDF2C
:10114000E3CFCF93DF9300D000D01F92CDB7DEB7AF
:1011500085E0B82ECE0101967C01E091F301F0917B
:10116000F401A08010E000E0AA2029F00580F681BB
:10117000E02D008111815BDB60DB6C018091EB0174
:101180009091EC01C816D90608F049C0BDDFD09295
:10119000EC01C092EB0156DCD701EB2D1D92EA95D4
:1011A000E9F750E040E0B7018091EF019091F00144
:1011B0007ED4882391F2898187FDF3CF0C811D8134
:1011C000D8011A968D919C91892B19F0C80102962D
:1011D000A7D133DB6C018091EB019091EC01C81633
:1011E000D90608F491DFD092EC01C092EB01E981BD
:1011F000E150E930B0F60E2E000CFF0BEA5FF64F1F
:10120000D80152968C9152970C948A113209320966
:1012100072095C096D093209320972095C09D092C0
:10122000EC01C092EB01AA2041F0C016D10660F09B
:1012300009DCB601C80140DFAFCFE091F101F091C8
:10124000F20141E08081811140E0B8016C197D0913
:101250008091EF019091F001AFD4F4DB81119CCF2C
:1012600093D19ACF8160F801828B2A813B8164857A
:101270007585620F731FA601C801D2DE882309F4A9
:1012800090CFD80152968C91529782FF11C06A81FB
:101290007B811C968D919C91680F791FA601C801D6
:1012A000E8DED8015096ED91FC91C801099579CFFF
:1012B0008E7FF801828BF5CF816052968C93529786
:1012C0006A817B811D967C936E931C976C0D7D1DAE
:1012D0009601A601C801A4DE64CF81FD03C0C80148
:1012E000C9D05FCF8E7FF801828B5BCFEF92FF92E8
:1012F0000F9370DE8091EF019091F001892B91F0B6
:101300008DEEE82E81E0F82E03E030E020E04CE5A1
:1013100050E064E671E081EA98E024D90F91FF90F3
:10132000EF90089580E0FACF8F929F92AF92BF9294
:10133000CF92DF92FF920F931F93CF93DF934C01D5
:101340005B01F42E690183E190E085D0EC01892BEB
:1013500091F01A8A3FDE99828882BD86AC86DF864C
:10136000CE86198B088BCE010296A0D0FF2019F0F3
:101370008A8984608A8BCE01DF91CF911F910F9172
:10138000FF90DF90CF90BF90AF909F908F90089587
:101390000F931F93CF93DF9300D000D01F92CDB750
:1013A000DEB72091EF013091F001232B59F480E05A
:1013B0000F900F900F900F900F90DF91CF911F9192
:1013C0000F91089569835B834A839D838C83663084
:1013D00074F79CDDE091EF01F091F00120E0A801AD
:1013E000823011F050E040E0BE016F5F7F4FCF01CF
:1013F000D3D2DECF0FB6F8940F92FC018685978585
:101400000F900FBE08950FB6F8940F92FC017787E6
:1014100066870F900FBE08950C942D01259A2D9A82
:1014200008951D9A0895FADF2FEF80E792E021508A
:1014300080409040E1F700C00000F3DFF5CFEEDF21
:101440002FEF87EA91E6215080409040E1F700C0FD
:101450000000E7DFF5CFCF93DF93EC01E8D9CE01B1
:101460005FD7EC01EFDA209709F4DDDFCE01DF91E1
:10147000CF910895CF93DF93009739F0EC01D7D93E
:10148000CE01EAD7DF91CF91DDCADF91CF910895E8
:10149000FC010396928381832FEF3FEF34832383F4
:1014A000968385839087878310820895FC01118637
:1014B000108608950F931F93CF93DF938C01FB0148
:1014C00080819181D80113968F3F9807F1F4E8014C
:1014D000AF81B88512968D919C91139793838283E7
:1014E000EC01FD83EC83B583A4831396FC93EE9308
:1014F000129711870087F80180818F5F8083DF91C9
:10150000CF911F910F910895D90112962D913C9181
:101510001397E9014881598184179507A8F7DACF15
:10152000CF93DF93FC01A085B185828193812481D3
:101530003581EC013D832C83C481D5819B838A83D3
:1015400011968D919C9112978E179F0721F41296F8
:10155000DC93CE931197118610868C9181508C93D9
:10156000DF91CF910895FC016083319770833197AB
:101570001082319720E8208331971082779740833B
:1015800031975083839708950F920FB6F8940F9276
:101590001F9211242F923F924F925F926F927F92EF
:1015A0008F929F92AF92BF92CF92DF92EF92FF9273
:1015B0000F931F932F933F934F935F936F937F935B
:1015C0008F939F93AF93BF93CF93DF93EF93FF934B
:1015D000A091E901B091EA010DB60D920EB60D92FF
:1015E000FBDAA091E901B091EA01CD91CDBFDD9187
:1015F000DEBFFF91EF91DF91CF91BF91AF919F91AE
:101600008F917F916F915F914F913F912F911F919A
:101610000F91FF90EF90DF90CF90BF90AF909F9091
:101620008F907F906F905F904F903F902F901F9082
:101630000F900FBE0F9008950F920FB6F8940F926F
:101640001F9211242F923F924F925F926F927F923E
:101650008F929F92AF92BF92CF92DF92EF92FF92C2
:101660000F931F932F933F934F935F936F937F93AA
:101670008F939F93AF93BF93CF93DF93EF93FF939A
:10168000A091E901B091EA010DB60D920EB60D924E
:1016900013BEDDD88111A0DAA091E901B091EA0171
:1016A000CD91CDBFDD91DEBFFF91EF91DF91CF9165
:1016B000BF91AF919F918F917F916F915F914F916A
:1016C0003F912F911F910F91FF90EF90DF90CF905E
:1016D000BF90AF909F908F907F906F905F904F9052
:1016E0003F902F901F900F900FBE0F900895A895D8
:1016F00088E190EC0FB6F894A895809360000FBE37
:10170000909360000895F3DFA091E901B091EA01A0
:10171000CD91CDBFDD91DEBFFF91EF91DF91CF91F4
:10172000BF91AF919F918F917F916F915F914F91F9
:101730003F912F911F910F91FF90EF90DF90CF90ED
:10174000BF90AF909F908F907F906F905F904F90E1
:101750003F902F901F900F900FBE0F90089581E043
:1017600008956ADF18950FB6F8940F92FC01928DD8
:101770000F900FBE81E0911180E008950F931F93A9
:10178000CF93DF93EC01042F1A8D4C8D411110C0C3
:1017900088819981892B19F58C819D81C5DB1D82FA
:1017A0001C821F5F1A8FDF91CF911F910F910895B7
:1017B00050E0011116C08A819B81D7D68C8D2A8179
:1017C0003B81820F932F911D9B838A832C813D81C6
:1017D0008217930720F0888199819B838A8380E018
:1017E000E0CF8E819F81C1D68C8D90E091958195BF
:1017F00091092E813F81280F391F3F832E83488115
:1018000059812417350730F42C813D81820F931FB5
:101810009F838E83023019F7112309F31150DFCF14
:10182000FC01CB01448D442399F050E0268137819F
:10183000240F351F37832683648175812617370768
:1018400020F02081318137832683668177818DC6A0
:101850000895EF92FF921F93CF93DF93EC010FB6A1
:10186000F8940F921E8D7C0181E1E80EF11C111697
:10187000C4F08FEF8E8F0F900FBE0FB6F8940F92BB
:101880001D8D7E0188E0E80EF11C11169CF08FEF93
:101890008D8F0F900FBEDF91CF911F91FF90EF9032
:1018A00008958989882329F3C7014CDA81112ADB3D
:1018B0001150DDCF8885882351F3C70143DA8111A8
:1018C00021DB1150E2CFCF93DF93009709F43CC0A6
:1018D000FC01238D222309F437C0EC010FB6F894E4
:1018E0000F9280819181238D448DFC01249FE00D16
:1018F000F11D1124FD83EC831A8E9B838A83215072
:10190000330B429FF001439FF00D11248E0F9F1F58
:101910009F838E838FEF8D8F8E8F61110EC0888590
:10192000882329F0CE0108960DDA81112DDE0F9063
:101930000FBE81E0DF91CF910895CE010896A8DD1A
:10194000CE014196A5DDF3CF80E0F4CF0F931F9336
:10195000CF93DF93811108C0D0E0C0E0CE01DF91CA
:10196000CF911F910F910895162F082F689FC001E6
:1019700011244F9670DDEC01009771F3111108C02E
:10198000998388830B8F1C8F61E0CE019CDFE6CFAB
:101990004F9699838883F6CFAF92BF92CF92DF9212
:1019A000FF920F931F93CF93DF9300D000D01F922D
:1019B000CDB7DEB78C016B015D834C83F22E80E0E6
:1019C000580198E0A90EB11C0FB6F8940F92F801D7
:1019D000228D938D291718F0F2E0FF121FC04F2DB2
:1019E000B601C801CBDEF8019189992319F0C8012D
:1019F0004196A8D98111C8DD0F900FBE81E00F90EC
:101A00000F900F900F900F90DF91CF911F910F913A
:101A1000FF90DF90CF90BF90AF9008952C813D81D3
:101A2000232B21F40F900FBE80E0E9CF811103C07A
:101A3000CE0101962CDA0F900FBE0E9417040FB64C
:101A4000F8940F92F801858D8F3F09F4158EF801F7
:101A5000868D8F3F09F4168E0F900FBEBE016C5F0E
:101A60007F4FCE0101961EDA81111CC00FB6F8948B
:101A70000F92F801928D838D0F900FBE98130DC0B9
:101A80006C817D81C50108D9C801E3DE0E94220571
:101A9000811101C079DD81E097CFC801DADE0E94B3
:101AA0002205F9CFC801D5DE0E942205BDCFAF9235
:101AB000BF92CF92DF92FF920F931F93CF93DF934A
:101AC00000D000D01F92CDB7DEB78C016B015D83D3
:101AD0004C8380E0580191E1A90EB11C0FB6F89437
:101AE0000F92F801F28CFF2001F1B601C80198DED7
:101AF000FA94F801F28E8085882329F0C8010896AF
:101B000021D9811141DD0F900FBE81E00F900F9020
:101B10000F900F900F90DF91CF911F910F91FF9039
:101B2000DF90CF90BF90AF9008952C813D81232B03
:101B300021F40F900FBE80E0E9CF811103C0CE01E8
:101B40000196A5D90F900FBE0E9417040FB6F89406
:101B50000F92F801858D8F3F09F4158EF801868D5F
:101B60008F3F09F4168E0F900FBEBE016C5F7F4F42
:101B7000CE01019697D9811116C0C801F4DD8823E2
:101B800069F06C817D81C50187D8C80162DE0E9441
:101B90002205811101C0F8DC81E0A0CFC80159DE27
:101BA0000E942205F9CFC80154DE0E942205C80117
:101BB000DADD882389F3BFCFCF93DF93EC010FB633
:101BC000F8940F928D8D8F3F09F41D8E8E8D8F3F6F
:101BD00009F41E8E0F900FBE8A8D811103C0CE01B5
:101BE000419669D8CE01DF91CF9133CEFC0122819D
:101BF0003381F901E058FF4F808191812E573F4F8B
:101C0000F90120813181821B930B8F7799270895E9
:101C1000FC0182819381FC01EE57FF4F20813181CD
:101C20003297408151814217530731F0820F931F41
:101C3000FC01808190E008958FEF9FEF0895DC0113
:101C400012968D919C91FC01EE57FF4F20813181BE
:101C5000DC01A058BF4F4D915C914217530761F0D2
:101C6000820F931FDC018C912F5F3F4F2F7733271B
:101C70003183208390E008958FEF9FEF0895DC017A
:101C800012968D919C91FC01E058FF4F8E579F4F0B
:101C9000DC018D919C91918380830895FC01A08546
:101CA000B185218981E090E002C0880F991F2A95B3
:101CB000E2F72C9130E028233923232BD1F304843D
:101CC000F585E02D608308951F920F920FB60F9255
:101CD00011242F933F934F936F937F938F939F93F1
:101CE000EF93FF934091C60020919A0230919B029E
:101CF000C90101968F77992760919C0270919D028E
:101D00008617970741F0265E3D4FF9014083909377
:101D10009B0280939A02FF91EF919F918F917F9107
:101D20006F914F913F912F910F900FBE0F901F9089
:101D30001895CF93DF93EC019A01AB01E885F98503
:101D4000211581EE38074105510509F443C06A8920
:101D500081E090E001C0880F6A95EAF7808360E037
:101D600079E08DE390E0B4D2BA01A9014150510964
:101D7000610971097695679557954795CA01EC8178
:101D8000FD819083EE81FF818083EA85FB85208140
:101D90003E8581E090E0AC0101C0440F3A95EAF73E
:101DA000242B2083EA85FB8520813F85AC0101C07F
:101DB000440F3A95EAF7242B2083EA85FB8520819E
:101DC000388901C0880F3A95EAF7822B8083DF912A
:101DD000CF910895108280E190E0D1CFE7E0F2E06A
:101DE00080E791E0918380838AE192E0938382830C
:101DF00085EC90E09583848384EC90E097838683E0
:101E000080EC90E09187808781EC90E093878287D7
:101E100086EC90E09587848784E0868783E08787D7
:101E200087E0808B85E0818B81E0828B08950F9322
:101E30001F93CF93DF93EC018B01F80161918F0128
:101E4000662341F0E881F9810190F081E02DCE0117
:101E50000995F3CFDF91CF911F910F910895EF92E4
:101E6000FF920F931F93CF93DF937C01EB018B01C4
:101E7000040F151FC017D10751F06991D701ED91DB
:101E8000FC910190F081E02DC7010995F3CFDF911E
:101E9000CF911F910F91FF90EF900895DC01ED918C
:101EA000FC910280F381E02D09942F923F924F9292
:101EB0005F926F927F928F929F92AF92BF92CF92DA
:101EC000DF92EF92FF920F931F93CF93DF93CDB7E3
:101ED000DEB7A0970FB6F894DEBF0FBECDBF6C0182
:101EE0004115510561057105E1F450E040E060E302
:101EF000A0960FB6F894DEBF0FBECDBFDF91CF9195
:101F00001F910F91FF90EF90DF90CF90BF90AF9017
:101F10009F908F907F906F905F904F903F902F9009
:101F20008AC08E010F5F1F4F412C512C32011801C6
:101F3000822E912CB12CA12CCB01BA01A5019401C8
:101F4000C7D1F42EE52ED301C2010196A11DB11D0A
:101F5000F80161938F01A9016F2D7E2D4115510567
:101F60006105710571F57C0110E000E0F201E01BF4
:101F7000F10BE20DF31D60816A3030F5605D50E0D9
:101F800040E0C60158D00F5F1F4FE016F10671F711
:101F9000A0960FB6F894DEBF0FBECDBFDF91CF91F4
:101FA0001F910F91FF90EF90DF90CF90BF90AF9077
:101FB0009F908F907F906F905F904F903F902F9069
:101FC00008952C013D01B8CF695CD9CFCF92DF9243
:101FD000EF92FF92CF93DF93EC016A017B01211511
:101FE000310569F4E881F9810190F081E02D642FD9
:101FF000DF91CF91FF90EF90DF90CF9009942A303E
:10200000310579F4F7FE0CC050E040E06DE213D0EA
:10201000F094E094D094C094C11CD11CE11CF11C3C
:102020002AE0B701A601CE01DF91CF91FF90EF909A
:10203000DF90CF903ACF9A01462F50E070E060E0F9
:10204000C5CFCF93DF93EC0150E040E06DE0F3DFCC
:1020500050E040E06AE0CE01DF91CF91ECCFCF932A
:10206000DF93EC011BDFCE01DF91CF91EACF9A0124
:10207000AB01770F660B770BA9CF2115310541F422
:10208000DC01ED91FC910190F081E02D642F099429
:102090000CCF9A01AB0170E060E0EFCFCF93DF93FC
:1020A000EC01F7DFCE01DF91CF91CBCF1F920F92E2
:1020B0000FB60F9211242F933F938F939F93AF935B
:1020C000BF9380919F029091A002A091A102B09134
:1020D000A20230919E0223E0230F2D3758F501967E
:1020E000A11DB11D20939E0280939F029093A00298
:1020F000A093A102B093A2028091A3029091A402A6
:10210000A091A502B091A6020196A11DB11D8093D8
:10211000A3029093A402A093A502B093A602BF913C
:10212000AF919F918F913F912F910F900FBE0F9084
:102130001F90189526E8230F0296A11DB11DD2CF3E
:10214000833081F028F4813099F08230A9F008952D
:102150008630A9F08730C9F08430B1F480918000D6
:102160008F7D03C0809180008F77809380000895D9
:1021700084B58F7784BD089584B58F7DFBCF809122
:10218000B0008F778093B00008958091B0008F7D6C
:10219000F9CF90E0FC01E458FF4F2491FC01E05797
:1021A000FF4FE491EE2389F0F0E0EE0FFF1FE854BB
:1021B000FF4FA591B4918FB7611108C0F8949C911D
:1021C000E22FE095E923EC938FBF0895F894EC910A
:1021D000E22BF9CF1F93CF93DF93282F30E0F90143
:1021E000E859FF4F8491F901E458FF4FD491F90168
:1021F000E057FF4FC491CC23A1F0162F8111A0DF2F
:10220000EC2FF0E0EE0FFF1FE255FF4FA591B491C8
:102210008FB711110AC0F894EC91D095DE23DC93AE
:102220008FBFDF91CF911F910895F894EC91DE2B31
:10223000F6CFCF93DF93282F30E0F901E859FF4F15
:102240008491F901E458FF4FD491F901E057FF4F11
:10225000C491CC2399F0811173DFEC2FF0E0EE0FE5
:10226000FF1FEC55FF4FA591B491EC91ED2381E058
:1022700090E009F480E0DF91CF91089580E090E054
:10228000FACFAA1BBB1B51E107C0AA1FBB1FA61791
:10229000B70710F0A61BB70B881F991F5A95A9F70F
:1022A00080959095BC01CD01089597FB072E16F4FB
:1022B000009406D077FD08D0E4DF07FC05D03EF49B
:1022C000909581959F4F0895709561957F4F0895E2
:1022D000A1E21A2EAA1BBB1BFD010DC0AA1FBB1F2A
:1022E000EE1FFF1FA217B307E407F50720F0A21B9C
:1022F000B30BE40BF50B661F771F881F991F1A9409
:1023000069F760957095809590959B01AC01BD0132
:10231000CF010895EE0FFF1F0590F491E02D099471
:102320000F931F93CF93DF938230910510F482E0D7
:1023300090E0E091A902F091AA0230E020E0B0E044
:10234000A0E0309799F42115310509F44AC0281B03
:10235000390B24303105D8F58A819B8161157105CF
:1023600089F1FB0193838283FE0111C04081518179
:102370000281138148175907E0F04817590799F46B
:10238000109761F012960C93129713961C93329645
:10239000CF01DF91CF911F910F9108950093A90272
:1023A0001093AA02F4CF2115310551F042175307BB
:1023B00038F0A901DB019A01BD01DF01F801C1CFAD
:1023C000EF01F9CF9093AA028093A902CDCFFE012D
:1023D000E20FF31F819391932250310939832883AF
:1023E000D7CF2091A7023091A802232B41F420914E
:1023F0000201309103013093A8022093A70220919B
:102400000001309101012115310541F42DB73EB78E
:102410004091040150910501241B350BE091A70266
:10242000F091A802E217F307A0F42E1B3F0B281728
:10243000390778F0AC014E5F5F4F2417350748F03D
:102440004E0F5F1F5093A8024093A7028193919370
:102450009FCFF0E0E0E09CCFCF93DF930097E9F0CF
:10246000FC01329713821282A091A902B091AA02B4
:10247000ED0130E020E01097A1F420813181820F3E
:10248000931F2091A7023091A8022817390709F05D
:1024900061C0F093A802E093A702DF91CF91089565
:1024A000EA01CE17DF07E8F54A815B819E014115FD
:1024B0005105B1F7E901FB83EA8349915991C40FB2
:1024C000D51FEC17FD0761F4808191810296840F7E
:1024D000951FE90199838883828193819B838A83F5
:1024E000F0E0E0E012968D919C9113970097B9F57A
:1024F0002D913C911197CD010296820F931F20914F
:10250000A7023091A8022817390739F6309751F5FC
:102510001092AA021092A902B093A802A093A70257
:10252000BCCFD383C28340815181840F951FC817CC
:10253000D90761F44E5F5F4F88819981480F591F19
:10254000518340838A819B81938382832115310546
:1025500009F0B0CFF093AA02E093A9029ECFFD014B
:10256000DC01C0CF13821282D7CFFB01DC0102C095
:1025700001900D9241505040D8F70895DC0101C000
:0E2580006D9341505040E0F70895F894FFCF5E
:10258E000000AB0220001F00034175746F2D7265B1
:10259E006C6F61642074696D65722063616C6C622E
:1025AE0061636B20657865637574696E67200041A1
:1025BE0075746F52656C6F61640054696D6572500D
:1025CE006572696F642073657420746F203A0073AE
:1025DE00200A0054696D6572205265736574004956
:1025EE00444C4500546D7220537663000000000089
:0E25FE004E0E170F2F0FF60D1F0E080E3F0E7C
:00000001FF
